{
  "_format": "hh3-artifact-1",
  "contractName": "TrustBallot",
  "sourceName": "contracts/TrustBallot.sol",
  "abi": [
    {
      "inputs": [],
      "stateMutability": "nonpayable",
      "type": "constructor"
    },
    {
      "anonymous": false,
      "inputs": [
        {
          "indexed": true,
          "internalType": "uint256",
          "name": "candidateId",
          "type": "uint256"
        },
        {
          "indexed": false,
          "internalType": "string",
          "name": "name",
          "type": "string"
        }
      ],
      "name": "CandidateAdded",
      "type": "event"
    },
    {
      "anonymous": false,
      "inputs": [],
      "name": "ElectionEnded",
      "type": "event"
    },
    {
      "anonymous": false,
      "inputs": [],
      "name": "ElectionStarted",
      "type": "event"
    },
    {
      "anonymous": false,
      "inputs": [
        {
          "indexed": true,
          "internalType": "address",
          "name": "voter",
          "type": "address"
        },
        {
          "indexed": true,
          "internalType": "uint256",
          "name": "candidateId",
          "type": "uint256"
        }
      ],
      "name": "Voted",
      "type": "event"
    },
    {
      "anonymous": false,
      "inputs": [
        {
          "indexed": true,
          "internalType": "address",
          "name": "voter",
          "type": "address"
        },
        {
          "indexed": false,
          "internalType": "string",
          "name": "name",
          "type": "string"
        },
        {
          "indexed": false,
          "internalType": "string",
          "name": "image",
          "type": "string"
        }
      ],
      "name": "VoterRegistered",
      "type": "event"
    },
    {
      "inputs": [
        {
          "internalType": "string",
          "name": "_name",
          "type": "string"
        },
        {
          "internalType": "string",
          "name": "_meta",
          "type": "string"
        }
      ],
      "name": "addCandidate",
      "outputs": [],
      "stateMutability": "nonpayable",
      "type": "function"
    },
    {
      "inputs": [],
      "name": "endElection",
      "outputs": [],
      "stateMutability": "nonpayable",
      "type": "function"
    },
    {
      "inputs": [],
      "name": "getAllCandidates",
      "outputs": [
        {
          "components": [
            {
              "internalType": "uint256",
              "name": "id",
              "type": "uint256"
            },
            {
              "internalType": "string",
              "name": "name",
              "type": "string"
            },
            {
              "internalType": "string",
              "name": "meta",
              "type": "string"
            },
            {
              "internalType": "uint256",
              "name": "voteCount",
              "type": "uint256"
            },
            {
              "internalType": "bool",
              "name": "exists",
              "type": "bool"
            }
          ],
          "internalType": "struct TrustBallot.Candidate[]",
          "name": "",
          "type": "tuple[]"
        }
      ],
      "stateMutability": "view",
      "type": "function"
    },
    {
      "inputs": [],
      "name": "getAllVoters",
      "outputs": [
        {
          "components": [
            {
              "internalType": "string",
              "name": "name",
              "type": "string"
            },
            {
              "internalType": "string",
              "name": "image",
              "type": "string"
            },
            {
              "internalType": "bool",
              "name": "isRegistered",
              "type": "bool"
            },
            {
              "internalType": "bool",
              "name": "hasVoted",
              "type": "bool"
            },
            {
              "internalType": "uint256",
              "name": "votedCandidateId",
              "type": "uint256"
            }
          ],
          "internalType": "struct TrustBallot.Voter[]",
          "name": "",
          "type": "tuple[]"
        },
        {
          "internalType": "address[]",
          "name": "",
          "type": "address[]"
        }
      ],
      "stateMutability": "view",
      "type": "function"
    },
    {
      "inputs": [
        {
          "internalType": "uint256",
          "name": "_id",
          "type": "uint256"
        }
      ],
      "name": "getCandidate",
      "outputs": [
        {
          "internalType": "uint256",
          "name": "id",
          "type": "uint256"
        },
        {
          "internalType": "string",
          "name": "name",
          "type": "string"
        },
        {
          "internalType": "string",
          "name": "meta",
          "type": "string"
        },
        {
          "internalType": "uint256",
          "name": "voteCount",
          "type": "uint256"
        }
      ],
      "stateMutability": "view",
      "type": "function"
    },
    {
      "inputs": [],
      "name": "getCandidatesCount",
      "outputs": [
        {
          "internalType": "uint256",
          "name": "",
          "type": "uint256"
        }
      ],
      "stateMutability": "view",
      "type": "function"
    },
    {
      "inputs": [
        {
          "internalType": "address",
          "name": "_addr",
          "type": "address"
        }
      ],
      "name": "getVoter",
      "outputs": [
        {
          "internalType": "string",
          "name": "name",
          "type": "string"
        },
        {
          "internalType": "string",
          "name": "image",
          "type": "string"
        },
        {
          "internalType": "bool",
          "name": "isRegistered",
          "type": "bool"
        },
        {
          "internalType": "bool",
          "name": "hasVoted",
          "type": "bool"
        },
        {
          "internalType": "uint256",
          "name": "votedId",
          "type": "uint256"
        }
      ],
      "stateMutability": "view",
      "type": "function"
    },
    {
      "inputs": [],
      "name": "getWinner",
      "outputs": [
        {
          "internalType": "uint256",
          "name": "winnerId",
          "type": "uint256"
        },
        {
          "internalType": "string",
          "name": "winnerName",
          "type": "string"
        },
        {
          "internalType": "uint256",
          "name": "winnerVotes",
          "type": "uint256"
        },
        {
          "internalType": "string",
          "name": "status",
          "type": "string"
        }
      ],
      "stateMutability": "view",
      "type": "function"
    },
    {
      "inputs": [
        {
          "internalType": "address",
          "name": "_addr",
          "type": "address"
        }
      ],
      "name": "hasVoted",
      "outputs": [
        {
          "internalType": "bool",
          "name": "",
          "type": "bool"
        }
      ],
      "stateMutability": "view",
      "type": "function"
    },
    {
      "inputs": [
        {
          "internalType": "address",
          "name": "_addr",
          "type": "address"
        }
      ],
      "name": "isVoterRegistered",
      "outputs": [
        {
          "internalType": "bool",
          "name": "",
          "type": "bool"
        }
      ],
      "stateMutability": "view",
      "type": "function"
    },
    {
      "inputs": [],
      "name": "owner",
      "outputs": [
        {
          "internalType": "address",
          "name": "",
          "type": "address"
        }
      ],
      "stateMutability": "view",
      "type": "function"
    },
    {
      "inputs": [
        {
          "internalType": "address",
          "name": "_voter",
          "type": "address"
        },
        {
          "internalType": "string",
          "name": "_name",
          "type": "string"
        },
        {
          "internalType": "string",
          "name": "_image",
          "type": "string"
        }
      ],
      "name": "registerVoter",
      "outputs": [],
      "stateMutability": "nonpayable",
      "type": "function"
    },
    {
      "inputs": [
        {
          "internalType": "string",
          "name": "_name",
          "type": "string"
        },
        {
          "internalType": "string",
          "name": "_image",
          "type": "string"
        }
      ],
      "name": "selfRegister",
      "outputs": [],
      "stateMutability": "nonpayable",
      "type": "function"
    },
    {
      "inputs": [],
      "name": "startElection",
      "outputs": [],
      "stateMutability": "nonpayable",
      "type": "function"
    },
    {
      "inputs": [],
      "name": "state",
      "outputs": [
        {
          "internalType": "enum TrustBallot.ElectionState",
          "name": "",
          "type": "uint8"
        }
      ],
      "stateMutability": "view",
      "type": "function"
    },
    {
      "inputs": [
        {
          "internalType": "address",
          "name": "_newOwner",
          "type": "address"
        }
      ],
      "name": "transferOwnership",
      "outputs": [],
      "stateMutability": "nonpayable",
      "type": "function"
    },
    {
      "inputs": [
        {
          "internalType": "uint256",
          "name": "_candidateId",
          "type": "uint256"
        }
      ],
      "name": "vote",
      "outputs": [],
      "stateMutability": "nonpayable",
      "type": "function"
    },
    {
      "inputs": [
        {
          "internalType": "address",
          "name": "",
          "type": "address"
        }
      ],
      "name": "voters",
      "outputs": [
        {
          "internalType": "string",
          "name": "name",
          "type": "string"
        },
        {
          "internalType": "string",
          "name": "image",
          "type": "string"
        },
        {
          "internalType": "bool",
          "name": "isRegistered",
          "type": "bool"
        },
        {
          "internalType": "bool",
          "name": "hasVoted",
          "type": "bool"
        },
        {
          "internalType": "uint256",
          "name": "votedCandidateId",
          "type": "uint256"
        }
      ],
      "stateMutability": "view",
      "type": "function"
    }
  ],
  "bytecode": "0x60806040525f5f60146101000a81548160ff021916908360028111156025576024607d565b5b021790555060016003553480156039575f5ffd5b50335f5f6101000a81548173ffffffffffffffffffffffffffffffffffffffff021916908373ffffffffffffffffffffffffffffffffffffffff16021790555060aa565b7f4e487b71000000000000000000000000000000000000000000000000000000005f52602160045260245ffd5b613462806100b75f395ff3fe608060405234801561000f575f5ffd5b5060043610610114575f3560e01c80638da5cb5b116100a0578063bb9aa28f1161006f578063bb9aa28f146102af578063c19d93fb146102cd578063d4f50f98146102eb578063eb2119db1461031f578063f2fde38b1461034f57610114565b80638da5cb5b146102205780638e7ea5b21461023e578063a3ec138d1461025f578063bb8fab8e1461029357610114565b80632e6997fe116100e75780632e6997fe1461019c57806335b8e820146101ba57806335bbe70e146101ed57806359f784681461020c57806362d73eb81461021657610114565b80630121b93f1461011857806309eef43e146101345780631ba9de5e1461016457806326541b5614610180575b5f5ffd5b610132600480360381019061012d91906122d6565b61036b565b005b61014e6004803603810190610149919061235b565b6105b0565b60405161015b91906123a0565b60405180910390f35b61017e6004803603810190610179919061241a565b610606565b005b61019a6004803603810190610195919061241a565b6108b2565b005b6101a4610ae1565b6040516101b1919061265b565b60405180910390f35b6101d460048036038101906101cf91906122d6565b610d09565b6040516101e494939291906126d2565b60405180910390f35b6101f5610ea7565b60405161020392919061290f565b60405180910390f35b6102146111b6565b005b61021e611311565b005b61022861163d565b6040516102359190612953565b60405180910390f35b610246611661565b604051610256949392919061296c565b60405180910390f35b6102796004803603810190610274919061235b565b61191d565b60405161028a9594939291906129bd565b60405180910390f35b6102ad60048036038101906102a89190612a1c565b611a74565b005b6102b7611e1d565b6040516102c49190612aad565b60405180910390f35b6102d5611e29565b6040516102e29190612b39565b60405180910390f35b6103056004803603810190610300919061235b565b611e3b565b6040516103169594939291906129bd565b60405180910390f35b6103396004803603810190610334919061235b565b612016565b60405161034691906123a0565b60405180910390f35b6103696004803603810190610364919061235b565b61206b565b005b6001600281111561037f5761037e612ac6565b5b5f60149054906101000a900460ff1660028111156103a05761039f612ac6565b5b146103e0576040517f08c379a00000000000000000000000000000000000000000000000000000000081526004016103d790612b9c565b60405180910390fd5b5f60045f3373ffffffffffffffffffffffffffffffffffffffff1673ffffffffffffffffffffffffffffffffffffffff1681526020019081526020015f209050806002015f9054906101000a900460ff16610470576040517f08c379a000000000000000000000000000000000000000000000000000000000815260040161046790612c04565b60405180910390fd5b8060020160019054906101000a900460ff16156104c2576040517f08c379a00000000000000000000000000000000000000000000000000000000081526004016104b990612c6c565b60405180910390fd5b5f60015f8481526020019081526020015f209050806004015f9054906101000a900460ff16610526576040517f08c379a000000000000000000000000000000000000000000000000000000000815260040161051d90612cd4565b60405180910390fd5b6001816003015f82825461053a9190612d1f565b9250508190555060018260020160016101000a81548160ff021916908315150217905550828260030181905550823373ffffffffffffffffffffffffffffffffffffffff167f4d99b957a2bc29a30ebd96a7be8e68fe50a3c701db28a91436490b7d53870ca460405160405180910390a3505050565b5f60045f8373ffffffffffffffffffffffffffffffffffffffff1673ffffffffffffffffffffffffffffffffffffffff1681526020019081526020015f2060020160019054906101000a900460ff169050919050565b60045f3373ffffffffffffffffffffffffffffffffffffffff1673ffffffffffffffffffffffffffffffffffffffff1681526020019081526020015f206002015f9054906101000a900460ff1615610693576040517f08c379a000000000000000000000000000000000000000000000000000000000815260040161068a90612d9c565b60405180910390fd5b6040518060a0016040528085858080601f0160208091040260200160405190810160405280939291908181526020018383808284375f81840152601f19601f82011690508083019250505050505050815260200183838080601f0160208091040260200160405190810160405280939291908181526020018383808284375f81840152601f19601f8201169050808301925050505050505081526020016001151581526020015f151581526020015f81525060045f3373ffffffffffffffffffffffffffffffffffffffff1673ffffffffffffffffffffffffffffffffffffffff1681526020019081526020015f205f820151815f0190816107959190612fe4565b5060208201518160010190816107ab9190612fe4565b506040820151816002015f6101000a81548160ff02191690831515021790555060608201518160020160016101000a81548160ff02191690831515021790555060808201518160030155905050600533908060018154018082558091505060019003905f5260205f20015f9091909190916101000a81548173ffffffffffffffffffffffffffffffffffffffff021916908373ffffffffffffffffffffffffffffffffffffffff1602179055503373ffffffffffffffffffffffffffffffffffffffff167f96ac7a421360a2bd773d747b2f64b40a916821c4906dbfdebf787c292e741f7d858585856040516108a494939291906130ed565b60405180910390a250505050565b5f5f9054906101000a900473ffffffffffffffffffffffffffffffffffffffff1673ffffffffffffffffffffffffffffffffffffffff163373ffffffffffffffffffffffffffffffffffffffff1614610940576040517f08c379a000000000000000000000000000000000000000000000000000000000815260040161093790613170565b60405180910390fd5b5f60035f8154809291906109539061318e565b9190505590506040518060a0016040528082815260200186868080601f0160208091040260200160405190810160405280939291908181526020018383808284375f81840152601f19601f82011690508083019250505050505050815260200184848080601f0160208091040260200160405190810160405280939291908181526020018383808284375f81840152601f19601f8201169050808301925050505050505081526020015f81526020016001151581525060015f8381526020019081526020015f205f820151815f01556020820151816001019081610a379190612fe4565b506040820151816002019081610a4d9190612fe4565b50606082015181600301556080820151816004015f6101000a81548160ff021916908315150217905550905050600281908060018154018082558091505060019003905f5260205f20015f9091909190915055807fe83b2a43e7e82d975c8a0a6d2f045153c869e111136a34d1889ab7b598e396a38686604051610ad29291906131d5565b60405180910390a25050505050565b60605f60028054905067ffffffffffffffff811115610b0357610b02612dba565b5b604051908082528060200260200182016040528015610b3c57816020015b610b296121a9565b815260200190600190039081610b215790505b5090505f5f90505b600280549050811015610d015760015f60028381548110610b6857610b676131f7565b5b905f5260205f20015481526020019081526020015f206040518060a00160405290815f8201548152602001600182018054610ba290612e14565b80601f0160208091040260200160405190810160405280929190818152602001828054610bce90612e14565b8015610c195780601f10610bf057610100808354040283529160200191610c19565b820191905f5260205f20905b815481529060010190602001808311610bfc57829003601f168201915b50505050508152602001600282018054610c3290612e14565b80601f0160208091040260200160405190810160405280929190818152602001828054610c5e90612e14565b8015610ca95780601f10610c8057610100808354040283529160200191610ca9565b820191905f5260205f20905b815481529060010190602001808311610c8c57829003601f168201915b5050505050815260200160038201548152602001600482015f9054906101000a900460ff161515151581525050828281518110610ce957610ce86131f7565b5b60200260200101819052508080600101915050610b44565b508091505090565b5f6060805f5f60015f8781526020019081526020015f209050806004015f9054906101000a900460ff16610d72576040517f08c379a0000000000000000000000000000000000000000000000000000000008152600401610d6990612cd4565b60405180910390fd5b805f015481600101826002018360030154828054610d8f90612e14565b80601f0160208091040260200160405190810160405280929190818152602001828054610dbb90612e14565b8015610e065780601f10610ddd57610100808354040283529160200191610e06565b820191905f5260205f20905b815481529060010190602001808311610de957829003601f168201915b50505050509250818054610e1990612e14565b80601f0160208091040260200160405190810160405280929190818152602001828054610e4590612e14565b8015610e905780601f10610e6757610100808354040283529160200191610e90565b820191905f5260205f20905b815481529060010190602001808311610e7357829003601f168201915b505050505091509450945094509450509193509193565b6060805f60058054905067ffffffffffffffff811115610eca57610ec9612dba565b5b604051908082528060200260200182016040528015610f0357816020015b610ef06121d7565b815260200190600190039081610ee85790505b5090505f5f90505b6005805490508110156111245760045f60058381548110610f2f57610f2e6131f7565b5b905f5260205f20015f9054906101000a900473ffffffffffffffffffffffffffffffffffffffff1673ffffffffffffffffffffffffffffffffffffffff1673ffffffffffffffffffffffffffffffffffffffff1681526020019081526020015f206040518060a00160405290815f82018054610faa90612e14565b80601f0160208091040260200160405190810160405280929190818152602001828054610fd690612e14565b80156110215780601f10610ff857610100808354040283529160200191611021565b820191905f5260205f20905b81548152906001019060200180831161100457829003601f168201915b5050505050815260200160018201805461103a90612e14565b80601f016020809104026020016040519081016040528092919081815260200182805461106690612e14565b80156110b15780601f10611088576101008083540402835291602001916110b1565b820191905f5260205f20905b81548152906001019060200180831161109457829003601f168201915b50505050508152602001600282015f9054906101000a900460ff161515151581526020016002820160019054906101000a900460ff1615151515815260200160038201548152505082828151811061110c5761110b6131f7565b5b60200260200101819052508080600101915050610f0b565b50806005808054806020026020016040519081016040528092919081815260200182805480156111a657602002820191905f5260205f20905b815f9054906101000a900473ffffffffffffffffffffffffffffffffffffffff1673ffffffffffffffffffffffffffffffffffffffff168152602001906001019080831161115d575b5050505050905092509250509091565b5f5f9054906101000a900473ffffffffffffffffffffffffffffffffffffffff1673ffffffffffffffffffffffffffffffffffffffff163373ffffffffffffffffffffffffffffffffffffffff1614611244576040517f08c379a000000000000000000000000000000000000000000000000000000000815260040161123b90613170565b60405180910390fd5b6001600281111561125857611257612ac6565b5b5f60149054906101000a900460ff16600281111561127957611278612ac6565b5b146112b9576040517f08c379a00000000000000000000000000000000000000000000000000000000081526004016112b09061326e565b60405180910390fd5b60025f60146101000a81548160ff021916908360028111156112de576112dd612ac6565b5b02179055507f66ec723071e4bb646f7b35d31bc2dee8510979bd8c180edd0690d4f5e802f1e460405160405180910390a1565b5f5f9054906101000a900473ffffffffffffffffffffffffffffffffffffffff1673ffffffffffffffffffffffffffffffffffffffff163373ffffffffffffffffffffffffffffffffffffffff161461139f576040517f08c379a000000000000000000000000000000000000000000000000000000000815260040161139690613170565b60405180910390fd5b5f60028111156113b2576113b1612ac6565b5b5f60149054906101000a900460ff1660028111156113d3576113d2612ac6565b5b148061141057506002808111156113ed576113ec612ac6565b5b5f60149054906101000a900460ff16600281111561140e5761140d612ac6565b5b145b61144f576040517f08c379a0000000000000000000000000000000000000000000000000000000008152600401611446906132d6565b60405180910390fd5b5f5f90505b6002805490508110156114dc5760015f60028381548110611478576114776131f7565b5b905f5260205f20015481526020019081526020015f205f5f82015f9055600182015f6114a49190612207565b600282015f6114b39190612207565b600382015f9055600482015f6101000a81549060ff021916905550508080600101915050611454565b5060025f6114ea9190612244565b60016003819055505f5f90505b6005805490508110156115d75760045f6005838154811061151b5761151a6131f7565b5b905f5260205f20015f9054906101000a900473ffffffffffffffffffffffffffffffffffffffff1673ffffffffffffffffffffffffffffffffffffffff1673ffffffffffffffffffffffffffffffffffffffff1681526020019081526020015f205f5f82015f61158b9190612207565b600182015f61159a9190612207565b600282015f6101000a81549060ff02191690556002820160016101000a81549060ff0219169055600382015f9055505080806001019150506114f7565b5060055f6115e59190612262565b60015f60146101000a81548160ff0219169083600281111561160a57611609612ac6565b5b02179055507fc475c26aa25ed8e85a7faa790e5f63b5d7ee1025f12821f4c9bfddd36ab4d11260405160405180910390a1565b5f5f9054906101000a900473ffffffffffffffffffffffffffffffffffffffff1681565b5f60605f606060028081111561167a57611679612ac6565b5b5f60149054906101000a900460ff16600281111561169b5761169a612ac6565b5b146116db576040517f08c379a00000000000000000000000000000000000000000000000000000000081526004016116d29061333e565b60405180910390fd5b5f5f90505f5f90505f5f90505f5f90505b600280549050811015611774575f60015f60028481548110611711576117106131f7565b5b905f5260205f20015481526020019081526020015f209050838160030154111561174b5780600301549350805f0154945060019250611766565b838160030154036117655782806117619061318e565b9350505b5b5080806001019150506116ec565b505f82036117d4575f5f60405180602001604052805f815250906040518060400160405280600981526020017f4e6f2077696e6e657200000000000000000000000000000000000000000000008152509650965096509650505050611917565b6001811115611835575f8260405180602001604052805f815250906040518060400160405280600d81526020017f456c656374696f6e2074696564000000000000000000000000000000000000008152509650965096509650505050611917565b8260015f8581526020019081526020015f206001018381805461185790612e14565b80601f016020809104026020016040519081016040528092919081815260200182805461188390612e14565b80156118ce5780601f106118a5576101008083540402835291602001916118ce565b820191905f5260205f20905b8154815290600101906020018083116118b157829003601f168201915b505050505091506040518060400160405280600f81526020017f57696e6e6572206465636c61726564000000000000000000000000000000000081525096509650965096505050505b90919293565b6004602052805f5260405f205f91509050805f01805461193c90612e14565b80601f016020809104026020016040519081016040528092919081815260200182805461196890612e14565b80156119b35780601f1061198a576101008083540402835291602001916119b3565b820191905f5260205f20905b81548152906001019060200180831161199657829003601f168201915b5050505050908060010180546119c890612e14565b80601f01602080910402602001604051908101604052809291908181526020018280546119f490612e14565b8015611a3f5780601f10611a1657610100808354040283529160200191611a3f565b820191905f5260205f20905b815481529060010190602001808311611a2257829003601f168201915b505050505090806002015f9054906101000a900460ff16908060020160019054906101000a900460ff16908060030154905085565b5f5f9054906101000a900473ffffffffffffffffffffffffffffffffffffffff1673ffffffffffffffffffffffffffffffffffffffff163373ffffffffffffffffffffffffffffffffffffffff1614611b02576040517f08c379a0000000000000000000000000000000000000000000000000000000008152600401611af990613170565b60405180910390fd5b5f73ffffffffffffffffffffffffffffffffffffffff168573ffffffffffffffffffffffffffffffffffffffff1603611b70576040517f08c379a0000000000000000000000000000000000000000000000000000000008152600401611b67906133a6565b60405180910390fd5b60045f8673ffffffffffffffffffffffffffffffffffffffff1673ffffffffffffffffffffffffffffffffffffffff1681526020019081526020015f206002015f9054906101000a900460ff1615611bfd576040517f08c379a0000000000000000000000000000000000000000000000000000000008152600401611bf490612d9c565b60405180910390fd5b6040518060a0016040528085858080601f0160208091040260200160405190810160405280939291908181526020018383808284375f81840152601f19601f82011690508083019250505050505050815260200183838080601f0160208091040260200160405190810160405280939291908181526020018383808284375f81840152601f19601f8201169050808301925050505050505081526020016001151581526020015f151581526020015f81525060045f8773ffffffffffffffffffffffffffffffffffffffff1673ffffffffffffffffffffffffffffffffffffffff1681526020019081526020015f205f820151815f019081611cff9190612fe4565b506020820151816001019081611d159190612fe4565b506040820151816002015f6101000a81548160ff02191690831515021790555060608201518160020160016101000a81548160ff02191690831515021790555060808201518160030155905050600585908060018154018082558091505060019003905f5260205f20015f9091909190916101000a81548173ffffffffffffffffffffffffffffffffffffffff021916908373ffffffffffffffffffffffffffffffffffffffff1602179055508473ffffffffffffffffffffffffffffffffffffffff167f96ac7a421360a2bd773d747b2f64b40a916821c4906dbfdebf787c292e741f7d85858585604051611e0e94939291906130ed565b60405180910390a25050505050565b5f600280549050905090565b5f60149054906101000a900460ff1681565b6060805f5f5f5f60045f8873ffffffffffffffffffffffffffffffffffffffff1673ffffffffffffffffffffffffffffffffffffffff1681526020019081526020015f206040518060a00160405290815f82018054611e9990612e14565b80601f0160208091040260200160405190810160405280929190818152602001828054611ec590612e14565b8015611f105780601f10611ee757610100808354040283529160200191611f10565b820191905f5260205f20905b815481529060010190602001808311611ef357829003601f168201915b50505050508152602001600182018054611f2990612e14565b80601f0160208091040260200160405190810160405280929190818152602001828054611f5590612e14565b8015611fa05780601f10611f7757610100808354040283529160200191611fa0565b820191905f5260205f20905b815481529060010190602001808311611f8357829003601f168201915b50505050508152602001600282015f9054906101000a900460ff161515151581526020016002820160019054906101000a900460ff161515151581526020016003820154815250509050805f01518160200151826040015183606001518460800151955095509550955095505091939590929450565b5f60045f8373ffffffffffffffffffffffffffffffffffffffff1673ffffffffffffffffffffffffffffffffffffffff1681526020019081526020015f206002015f9054906101000a900460ff169050919050565b5f5f9054906101000a900473ffffffffffffffffffffffffffffffffffffffff1673ffffffffffffffffffffffffffffffffffffffff163373ffffffffffffffffffffffffffffffffffffffff16146120f9576040517f08c379a00000000000000000000000000000000000000000000000000000000081526004016120f090613170565b60405180910390fd5b5f73ffffffffffffffffffffffffffffffffffffffff168173ffffffffffffffffffffffffffffffffffffffff1603612167576040517f08c379a000000000000000000000000000000000000000000000000000000000815260040161215e9061340e565b60405180910390fd5b805f5f6101000a81548173ffffffffffffffffffffffffffffffffffffffff021916908373ffffffffffffffffffffffffffffffffffffffff16021790555050565b6040518060a001604052805f815260200160608152602001606081526020015f81526020015f151581525090565b6040518060a0016040528060608152602001606081526020015f151581526020015f151581526020015f81525090565b50805461221390612e14565b5f825580601f106122245750612241565b601f0160209004905f5260205f20908101906122409190612280565b5b50565b5080545f8255905f5260205f209081019061225f9190612280565b50565b5080545f8255905f5260205f209081019061227d9190612280565b50565b5b80821115612297575f815f905550600101612281565b5090565b5f5ffd5b5f5ffd5b5f819050919050565b6122b5816122a3565b81146122bf575f5ffd5b50565b5f813590506122d0816122ac565b92915050565b5f602082840312156122eb576122ea61229b565b5b5f6122f8848285016122c2565b91505092915050565b5f73ffffffffffffffffffffffffffffffffffffffff82169050919050565b5f61232a82612301565b9050919050565b61233a81612320565b8114612344575f5ffd5b50565b5f8135905061235581612331565b92915050565b5f602082840312156123705761236f61229b565b5b5f61237d84828501612347565b91505092915050565b5f8115159050919050565b61239a81612386565b82525050565b5f6020820190506123b35f830184612391565b92915050565b5f5ffd5b5f5ffd5b5f5ffd5b5f5f83601f8401126123da576123d96123b9565b5b8235905067ffffffffffffffff8111156123f7576123f66123bd565b5b602083019150836001820283011115612413576124126123c1565b5b9250929050565b5f5f5f5f604085870312156124325761243161229b565b5b5f85013567ffffffffffffffff81111561244f5761244e61229f565b5b61245b878288016123c5565b9450945050602085013567ffffffffffffffff81111561247e5761247d61229f565b5b61248a878288016123c5565b925092505092959194509250565b5f81519050919050565b5f82825260208201905092915050565b5f819050602082019050919050565b6124ca816122a3565b82525050565b5f81519050919050565b5f82825260208201905092915050565b8281835e5f83830152505050565b5f601f19601f8301169050919050565b5f612512826124d0565b61251c81856124da565b935061252c8185602086016124ea565b612535816124f8565b840191505092915050565b61254981612386565b82525050565b5f60a083015f8301516125645f8601826124c1565b506020830151848203602086015261257c8282612508565b915050604083015184820360408601526125968282612508565b91505060608301516125ab60608601826124c1565b5060808301516125be6080860182612540565b508091505092915050565b5f6125d4838361254f565b905092915050565b5f602082019050919050565b5f6125f282612498565b6125fc81856124a2565b93508360208202850161260e856124b2565b805f5b85811015612649578484038952815161262a85826125c9565b9450612635836125dc565b925060208a01995050600181019050612611565b50829750879550505050505092915050565b5f6020820190508181035f83015261267381846125e8565b905092915050565b612684816122a3565b82525050565b5f82825260208201905092915050565b5f6126a4826124d0565b6126ae818561268a565b93506126be8185602086016124ea565b6126c7816124f8565b840191505092915050565b5f6080820190506126e55f83018761267b565b81810360208301526126f7818661269a565b9050818103604083015261270b818561269a565b905061271a606083018461267b565b95945050505050565b5f81519050919050565b5f82825260208201905092915050565b5f819050602082019050919050565b5f60a083015f8301518482035f8601526127668282612508565b915050602083015184820360208601526127808282612508565b91505060408301516127956040860182612540565b5060608301516127a86060860182612540565b5060808301516127bb60808601826124c1565b508091505092915050565b5f6127d1838361274c565b905092915050565b5f602082019050919050565b5f6127ef82612723565b6127f9818561272d565b93508360208202850161280b8561273d565b805f5b85811015612846578484038952815161282785826127c6565b9450612832836127d9565b925060208a0199505060018101905061280e565b50829750879550505050505092915050565b5f81519050919050565b5f82825260208201905092915050565b5f819050602082019050919050565b61288a81612320565b82525050565b5f61289b8383612881565b60208301905092915050565b5f602082019050919050565b5f6128bd82612858565b6128c78185612862565b93506128d283612872565b805f5b838110156129025781516128e98882612890565b97506128f4836128a7565b9250506001810190506128d5565b5085935050505092915050565b5f6040820190508181035f83015261292781856127e5565b9050818103602083015261293b81846128b3565b90509392505050565b61294d81612320565b82525050565b5f6020820190506129665f830184612944565b92915050565b5f60808201905061297f5f83018761267b565b8181036020830152612991818661269a565b90506129a0604083018561267b565b81810360608301526129b2818461269a565b905095945050505050565b5f60a0820190508181035f8301526129d5818861269a565b905081810360208301526129e9818761269a565b90506129f86040830186612391565b612a056060830185612391565b612a12608083018461267b565b9695505050505050565b5f5f5f5f5f60608688031215612a3557612a3461229b565b5b5f612a4288828901612347565b955050602086013567ffffffffffffffff811115612a6357612a6261229f565b5b612a6f888289016123c5565b9450945050604086013567ffffffffffffffff811115612a9257612a9161229f565b5b612a9e888289016123c5565b92509250509295509295909350565b5f602082019050612ac05f83018461267b565b92915050565b7f4e487b71000000000000000000000000000000000000000000000000000000005f52602160045260245ffd5b60038110612b0457612b03612ac6565b5b50565b5f819050612b1482612af3565b919050565b5f612b2382612b07565b9050919050565b612b3381612b19565b82525050565b5f602082019050612b4c5f830184612b2a565b92915050565b7f566f74696e67206e6f7420616c6c6f77656400000000000000000000000000005f82015250565b5f612b8660128361268a565b9150612b9182612b52565b602082019050919050565b5f6020820190508181035f830152612bb381612b7a565b9050919050565b7f4e6f742061207265676973746572656420766f746572000000000000000000005f82015250565b5f612bee60168361268a565b9150612bf982612bba565b602082019050919050565b5f6020820190508181035f830152612c1b81612be2565b9050919050565b7f416c726561647920766f746564000000000000000000000000000000000000005f82015250565b5f612c56600d8361268a565b9150612c6182612c22565b602082019050919050565b5f6020820190508181035f830152612c8381612c4a565b9050919050565b7f43616e646964617465206e6f74206578697374730000000000000000000000005f82015250565b5f612cbe60148361268a565b9150612cc982612c8a565b602082019050919050565b5f6020820190508181035f830152612ceb81612cb2565b9050919050565b7f4e487b71000000000000000000000000000000000000000000000000000000005f52601160045260245ffd5b5f612d29826122a3565b9150612d34836122a3565b9250828201905080821115612d4c57612d4b612cf2565b5b92915050565b7f416c7265616479207265676973746572656400000000000000000000000000005f82015250565b5f612d8660128361268a565b9150612d9182612d52565b602082019050919050565b5f6020820190508181035f830152612db381612d7a565b9050919050565b7f4e487b71000000000000000000000000000000000000000000000000000000005f52604160045260245ffd5b7f4e487b71000000000000000000000000000000000000000000000000000000005f52602260045260245ffd5b5f6002820490506001821680612e2b57607f821691505b602082108103612e3e57612e3d612de7565b5b50919050565b5f819050815f5260205f209050919050565b5f6020601f8301049050919050565b5f82821b905092915050565b5f60088302612ea07fffffffffffffffffffffffffffffffffffffffffffffffffffffffffffffffff82612e65565b612eaa8683612e65565b95508019841693508086168417925050509392505050565b5f819050919050565b5f612ee5612ee0612edb846122a3565b612ec2565b6122a3565b9050919050565b5f819050919050565b612efe83612ecb565b612f12612f0a82612eec565b848454612e71565b825550505050565b5f5f905090565b612f29612f1a565b612f34818484612ef5565b505050565b5b81811015612f5757612f4c5f82612f21565b600181019050612f3a565b5050565b601f821115612f9c57612f6d81612e44565b612f7684612e56565b81016020851015612f85578190505b612f99612f9185612e56565b830182612f39565b50505b505050565b5f82821c905092915050565b5f612fbc5f1984600802612fa1565b1980831691505092915050565b5f612fd48383612fad565b9150826002028217905092915050565b612fed826124d0565b67ffffffffffffffff81111561300657613005612dba565b5b6130108254612e14565b61301b828285612f5b565b5f60209050601f83116001811461304c575f841561303a578287015190505b6130448582612fc9565b8655506130ab565b601f19841661305a86612e44565b5f5b828110156130815784890151825560018201915060208501945060208101905061305c565b8683101561309e578489015161309a601f891682612fad565b8355505b6001600288020188555050505b505050505050565b828183375f83830152505050565b5f6130cc838561268a565b93506130d98385846130b3565b6130e2836124f8565b840190509392505050565b5f6040820190508181035f8301526131068186886130c1565b9050818103602083015261311b8184866130c1565b905095945050505050565b7f4f6e6c79206f776e6572000000000000000000000000000000000000000000005f82015250565b5f61315a600a8361268a565b915061316582613126565b602082019050919050565b5f6020820190508181035f8301526131878161314e565b9050919050565b5f613198826122a3565b91507fffffffffffffffffffffffffffffffffffffffffffffffffffffffffffffffff82036131ca576131c9612cf2565b5b600182019050919050565b5f6020820190508181035f8301526131ee8184866130c1565b90509392505050565b7f4e487b71000000000000000000000000000000000000000000000000000000005f52603260045260245ffd5b7f456c656374696f6e206e6f74206f6e676f696e670000000000000000000000005f82015250565b5f61325860148361268a565b915061326382613224565b602082019050919050565b5f6020820190508181035f8301526132858161324c565b9050919050565b7f456c656374696f6e206973206f6e676f696e67000000000000000000000000005f82015250565b5f6132c060138361268a565b91506132cb8261328c565b602082019050919050565b5f6020820190508181035f8301526132ed816132b4565b9050919050565b7f456c656374696f6e206e6f7420656e64656400000000000000000000000000005f82015250565b5f61332860128361268a565b9150613333826132f4565b602082019050919050565b5f6020820190508181035f8301526133558161331c565b9050919050565b7f496e76616c6964206164647265737300000000000000000000000000000000005f82015250565b5f613390600f8361268a565b915061339b8261335c565b602082019050919050565b5f6020820190508181035f8301526133bd81613384565b9050919050565b7f7a65726f206164647265737300000000000000000000000000000000000000005f82015250565b5f6133f8600c8361268a565b9150613403826133c4565b602082019050919050565b5f6020820190508181035f830152613425816133ec565b905091905056fea264697066735822122040a995a906efd80498760c75be7cad4ccd4f2ede159a4d131e8b4bfa3cba983564736f6c634300081c0033",
  "linkReferences": {},
  "deployedLinkReferences": {},
  "immutableReferences": {},
  "inputSourceName": "project/contracts/TrustBallot.sol",
  "buildInfoId": "solc-0_8_28-ab30e501afd6ead8aeeeac9dbbf0d5ffa1808a10"
}