{
  "_format": "hh3-artifact-1",
  "contractName": "TrustBallot",
  "sourceName": "contracts/TrustBallot.sol",
  "abi": [
    {
      "inputs": [],
      "stateMutability": "nonpayable",
      "type": "constructor"
    },
    {
      "anonymous": false,
      "inputs": [
        {
          "indexed": true,
          "internalType": "uint256",
          "name": "candidateId",
          "type": "uint256"
        },
        {
          "indexed": false,
          "internalType": "string",
          "name": "name",
          "type": "string"
        }
      ],
      "name": "CandidateAdded",
      "type": "event"
    },
    {
      "anonymous": false,
      "inputs": [],
      "name": "ElectionEnded",
      "type": "event"
    },
    {
      "anonymous": false,
      "inputs": [],
      "name": "ElectionStarted",
      "type": "event"
    },
    {
      "anonymous": false,
      "inputs": [
        {
          "indexed": true,
          "internalType": "address",
          "name": "voter",
          "type": "address"
        },
        {
          "indexed": true,
          "internalType": "uint256",
          "name": "candidateId",
          "type": "uint256"
        }
      ],
      "name": "Voted",
      "type": "event"
    },
    {
      "anonymous": false,
      "inputs": [
        {
          "indexed": true,
          "internalType": "address",
          "name": "voter",
          "type": "address"
        },
        {
          "indexed": false,
          "internalType": "string",
          "name": "name",
          "type": "string"
        },
        {
          "indexed": false,
          "internalType": "string",
          "name": "image",
          "type": "string"
        }
      ],
      "name": "VoterRegistered",
      "type": "event"
    },
    {
      "inputs": [
        {
          "internalType": "string",
          "name": "_name",
          "type": "string"
        },
        {
          "internalType": "string",
          "name": "_meta",
          "type": "string"
        }
      ],
      "name": "addCandidate",
      "outputs": [],
      "stateMutability": "nonpayable",
      "type": "function"
    },
    {
      "inputs": [],
      "name": "endElection",
      "outputs": [],
      "stateMutability": "nonpayable",
      "type": "function"
    },
    {
      "inputs": [],
      "name": "getAllCandidates",
      "outputs": [
        {
          "components": [
            {
              "internalType": "uint256",
              "name": "id",
              "type": "uint256"
            },
            {
              "internalType": "string",
              "name": "name",
              "type": "string"
            },
            {
              "internalType": "string",
              "name": "meta",
              "type": "string"
            },
            {
              "internalType": "uint256",
              "name": "voteCount",
              "type": "uint256"
            },
            {
              "internalType": "bool",
              "name": "exists",
              "type": "bool"
            }
          ],
          "internalType": "struct TrustBallot.Candidate[]",
          "name": "",
          "type": "tuple[]"
        }
      ],
      "stateMutability": "view",
      "type": "function"
    },
    {
      "inputs": [],
      "name": "getAllVoters",
      "outputs": [
        {
          "components": [
            {
              "internalType": "string",
              "name": "name",
              "type": "string"
            },
            {
              "internalType": "string",
              "name": "image",
              "type": "string"
            },
            {
              "internalType": "bool",
              "name": "isRegistered",
              "type": "bool"
            },
            {
              "internalType": "bool",
              "name": "hasVoted",
              "type": "bool"
            },
            {
              "internalType": "uint256",
              "name": "votedCandidateId",
              "type": "uint256"
            }
          ],
          "internalType": "struct TrustBallot.Voter[]",
          "name": "",
          "type": "tuple[]"
        },
        {
          "internalType": "address[]",
          "name": "",
          "type": "address[]"
        }
      ],
      "stateMutability": "view",
      "type": "function"
    },
    {
      "inputs": [
        {
          "internalType": "uint256",
          "name": "_id",
          "type": "uint256"
        }
      ],
      "name": "getCandidate",
      "outputs": [
        {
          "internalType": "uint256",
          "name": "id",
          "type": "uint256"
        },
        {
          "internalType": "string",
          "name": "name",
          "type": "string"
        },
        {
          "internalType": "string",
          "name": "meta",
          "type": "string"
        },
        {
          "internalType": "uint256",
          "name": "voteCount",
          "type": "uint256"
        }
      ],
      "stateMutability": "view",
      "type": "function"
    },
    {
      "inputs": [],
      "name": "getCandidatesCount",
      "outputs": [
        {
          "internalType": "uint256",
          "name": "",
          "type": "uint256"
        }
      ],
      "stateMutability": "view",
      "type": "function"
    },
    {
      "inputs": [
        {
          "internalType": "address",
          "name": "_addr",
          "type": "address"
        }
      ],
      "name": "getVoter",
      "outputs": [
        {
          "internalType": "string",
          "name": "name",
          "type": "string"
        },
        {
          "internalType": "string",
          "name": "image",
          "type": "string"
        },
        {
          "internalType": "bool",
          "name": "isRegistered",
          "type": "bool"
        },
        {
          "internalType": "bool",
          "name": "hasVoted",
          "type": "bool"
        },
        {
          "internalType": "uint256",
          "name": "votedId",
          "type": "uint256"
        }
      ],
      "stateMutability": "view",
      "type": "function"
    },
    {
      "inputs": [],
      "name": "getWinner",
      "outputs": [
        {
          "internalType": "uint256",
          "name": "winnerId",
          "type": "uint256"
        },
        {
          "internalType": "string",
          "name": "winnerName",
          "type": "string"
        },
        {
          "internalType": "uint256",
          "name": "winnerVotes",
          "type": "uint256"
        }
      ],
      "stateMutability": "view",
      "type": "function"
    },
    {
      "inputs": [
        {
          "internalType": "address",
          "name": "_addr",
          "type": "address"
        }
      ],
      "name": "hasVoted",
      "outputs": [
        {
          "internalType": "bool",
          "name": "",
          "type": "bool"
        }
      ],
      "stateMutability": "view",
      "type": "function"
    },
    {
      "inputs": [
        {
          "internalType": "address",
          "name": "_addr",
          "type": "address"
        }
      ],
      "name": "isVoterRegistered",
      "outputs": [
        {
          "internalType": "bool",
          "name": "",
          "type": "bool"
        }
      ],
      "stateMutability": "view",
      "type": "function"
    },
    {
      "inputs": [],
      "name": "owner",
      "outputs": [
        {
          "internalType": "address",
          "name": "",
          "type": "address"
        }
      ],
      "stateMutability": "view",
      "type": "function"
    },
    {
      "inputs": [
        {
          "internalType": "address",
          "name": "_voter",
          "type": "address"
        },
        {
          "internalType": "string",
          "name": "_name",
          "type": "string"
        },
        {
          "internalType": "string",
          "name": "_image",
          "type": "string"
        }
      ],
      "name": "registerVoter",
      "outputs": [],
      "stateMutability": "nonpayable",
      "type": "function"
    },
    {
      "inputs": [
        {
          "internalType": "string",
          "name": "_name",
          "type": "string"
        },
        {
          "internalType": "string",
          "name": "_image",
          "type": "string"
        }
      ],
      "name": "selfRegister",
      "outputs": [],
      "stateMutability": "nonpayable",
      "type": "function"
    },
    {
      "inputs": [],
      "name": "startElection",
      "outputs": [],
      "stateMutability": "nonpayable",
      "type": "function"
    },
    {
      "inputs": [],
      "name": "state",
      "outputs": [
        {
          "internalType": "enum TrustBallot.ElectionState",
          "name": "",
          "type": "uint8"
        }
      ],
      "stateMutability": "view",
      "type": "function"
    },
    {
      "inputs": [
        {
          "internalType": "address",
          "name": "_newOwner",
          "type": "address"
        }
      ],
      "name": "transferOwnership",
      "outputs": [],
      "stateMutability": "nonpayable",
      "type": "function"
    },
    {
      "inputs": [
        {
          "internalType": "uint256",
          "name": "_candidateId",
          "type": "uint256"
        }
      ],
      "name": "vote",
      "outputs": [],
      "stateMutability": "nonpayable",
      "type": "function"
    },
    {
      "inputs": [
        {
          "internalType": "address",
          "name": "",
          "type": "address"
        }
      ],
      "name": "voters",
      "outputs": [
        {
          "internalType": "string",
          "name": "name",
          "type": "string"
        },
        {
          "internalType": "string",
          "name": "image",
          "type": "string"
        },
        {
          "internalType": "bool",
          "name": "isRegistered",
          "type": "bool"
        },
        {
          "internalType": "bool",
          "name": "hasVoted",
          "type": "bool"
        },
        {
          "internalType": "uint256",
          "name": "votedCandidateId",
          "type": "uint256"
        }
      ],
      "stateMutability": "view",
      "type": "function"
    }
  ],
  "bytecode": "0x60806040525f5f60146101000a81548160ff021916908360028111156025576024607d565b5b021790555060016003553480156039575f5ffd5b50335f5f6101000a81548173ffffffffffffffffffffffffffffffffffffffff021916908373ffffffffffffffffffffffffffffffffffffffff16021790555060aa565b7f4e487b71000000000000000000000000000000000000000000000000000000005f52602160045260245ffd5b6131ae806100b75f395ff3fe608060405234801561000f575f5ffd5b5060043610610114575f3560e01c80638da5cb5b116100a0578063bb9aa28f1161006f578063bb9aa28f146102ae578063c19d93fb146102cc578063d4f50f98146102ea578063eb2119db1461031e578063f2fde38b1461034e57610114565b80638da5cb5b146102205780638e7ea5b21461023e578063a3ec138d1461025e578063bb8fab8e1461029257610114565b80632e6997fe116100e75780632e6997fe1461019c57806335b8e820146101ba57806335bbe70e146101ed57806359f784681461020c57806362d73eb81461021657610114565b80630121b93f1461011857806309eef43e146101345780631ba9de5e1461016457806326541b5614610180575b5f5ffd5b610132600480360381019061012d9190611fcf565b61036a565b005b61014e60048036038101906101499190612054565b6105af565b60405161015b9190612099565b60405180910390f35b61017e60048036038101906101799190612113565b610605565b005b61019a60048036038101906101959190612113565b6108b1565b005b6101a4610ae0565b6040516101b19190612354565b60405180910390f35b6101d460048036038101906101cf9190611fcf565b610d08565b6040516101e494939291906123cb565b60405180910390f35b6101f5610ea6565b604051610203929190612608565b60405180910390f35b6102146111b5565b005b61021e611310565b005b6102286114b3565b604051610235919061264c565b60405180910390f35b6102466114d7565b60405161025593929190612665565b60405180910390f35b61027860048036038101906102739190612054565b6116aa565b6040516102899594939291906126a1565b60405180910390f35b6102ac60048036038101906102a79190612700565b611801565b005b6102b6611baa565b6040516102c39190612791565b60405180910390f35b6102d4611bb6565b6040516102e1919061281d565b60405180910390f35b61030460048036038101906102ff9190612054565b611bc8565b6040516103159594939291906126a1565b60405180910390f35b61033860048036038101906103339190612054565b611da3565b6040516103459190612099565b60405180910390f35b61036860048036038101906103639190612054565b611df8565b005b6001600281111561037e5761037d6127aa565b5b5f60149054906101000a900460ff16600281111561039f5761039e6127aa565b5b146103df576040517f08c379a00000000000000000000000000000000000000000000000000000000081526004016103d690612880565b60405180910390fd5b5f60045f3373ffffffffffffffffffffffffffffffffffffffff1673ffffffffffffffffffffffffffffffffffffffff1681526020019081526020015f209050806002015f9054906101000a900460ff1661046f576040517f08c379a0000000000000000000000000000000000000000000000000000000008152600401610466906128e8565b60405180910390fd5b8060020160019054906101000a900460ff16156104c1576040517f08c379a00000000000000000000000000000000000000000000000000000000081526004016104b890612950565b60405180910390fd5b5f60015f8481526020019081526020015f209050806004015f9054906101000a900460ff16610525576040517f08c379a000000000000000000000000000000000000000000000000000000000815260040161051c906129b8565b60405180910390fd5b6001816003015f8282546105399190612a03565b9250508190555060018260020160016101000a81548160ff021916908315150217905550828260030181905550823373ffffffffffffffffffffffffffffffffffffffff167f4d99b957a2bc29a30ebd96a7be8e68fe50a3c701db28a91436490b7d53870ca460405160405180910390a3505050565b5f60045f8373ffffffffffffffffffffffffffffffffffffffff1673ffffffffffffffffffffffffffffffffffffffff1681526020019081526020015f2060020160019054906101000a900460ff169050919050565b60045f3373ffffffffffffffffffffffffffffffffffffffff1673ffffffffffffffffffffffffffffffffffffffff1681526020019081526020015f206002015f9054906101000a900460ff1615610692576040517f08c379a000000000000000000000000000000000000000000000000000000000815260040161068990612a80565b60405180910390fd5b6040518060a0016040528085858080601f0160208091040260200160405190810160405280939291908181526020018383808284375f81840152601f19601f82011690508083019250505050505050815260200183838080601f0160208091040260200160405190810160405280939291908181526020018383808284375f81840152601f19601f8201169050808301925050505050505081526020016001151581526020015f151581526020015f81525060045f3373ffffffffffffffffffffffffffffffffffffffff1673ffffffffffffffffffffffffffffffffffffffff1681526020019081526020015f205f820151815f0190816107949190612cc8565b5060208201518160010190816107aa9190612cc8565b506040820151816002015f6101000a81548160ff02191690831515021790555060608201518160020160016101000a81548160ff02191690831515021790555060808201518160030155905050600533908060018154018082558091505060019003905f5260205f20015f9091909190916101000a81548173ffffffffffffffffffffffffffffffffffffffff021916908373ffffffffffffffffffffffffffffffffffffffff1602179055503373ffffffffffffffffffffffffffffffffffffffff167f96ac7a421360a2bd773d747b2f64b40a916821c4906dbfdebf787c292e741f7d858585856040516108a39493929190612dd1565b60405180910390a250505050565b5f5f9054906101000a900473ffffffffffffffffffffffffffffffffffffffff1673ffffffffffffffffffffffffffffffffffffffff163373ffffffffffffffffffffffffffffffffffffffff161461093f576040517f08c379a000000000000000000000000000000000000000000000000000000000815260040161093690612e54565b60405180910390fd5b5f60035f81548092919061095290612e72565b9190505590506040518060a0016040528082815260200186868080601f0160208091040260200160405190810160405280939291908181526020018383808284375f81840152601f19601f82011690508083019250505050505050815260200184848080601f0160208091040260200160405190810160405280939291908181526020018383808284375f81840152601f19601f8201169050808301925050505050505081526020015f81526020016001151581525060015f8381526020019081526020015f205f820151815f01556020820151816001019081610a369190612cc8565b506040820151816002019081610a4c9190612cc8565b50606082015181600301556080820151816004015f6101000a81548160ff021916908315150217905550905050600281908060018154018082558091505060019003905f5260205f20015f9091909190915055807fe83b2a43e7e82d975c8a0a6d2f045153c869e111136a34d1889ab7b598e396a38686604051610ad1929190612eb9565b60405180910390a25050505050565b60605f60028054905067ffffffffffffffff811115610b0257610b01612a9e565b5b604051908082528060200260200182016040528015610b3b57816020015b610b28611f36565b815260200190600190039081610b205790505b5090505f5f90505b600280549050811015610d005760015f60028381548110610b6757610b66612edb565b5b905f5260205f20015481526020019081526020015f206040518060a00160405290815f8201548152602001600182018054610ba190612af8565b80601f0160208091040260200160405190810160405280929190818152602001828054610bcd90612af8565b8015610c185780601f10610bef57610100808354040283529160200191610c18565b820191905f5260205f20905b815481529060010190602001808311610bfb57829003601f168201915b50505050508152602001600282018054610c3190612af8565b80601f0160208091040260200160405190810160405280929190818152602001828054610c5d90612af8565b8015610ca85780601f10610c7f57610100808354040283529160200191610ca8565b820191905f5260205f20905b815481529060010190602001808311610c8b57829003601f168201915b5050505050815260200160038201548152602001600482015f9054906101000a900460ff161515151581525050828281518110610ce857610ce7612edb565b5b60200260200101819052508080600101915050610b43565b508091505090565b5f6060805f5f60015f8781526020019081526020015f209050806004015f9054906101000a900460ff16610d71576040517f08c379a0000000000000000000000000000000000000000000000000000000008152600401610d68906129b8565b60405180910390fd5b805f015481600101826002018360030154828054610d8e90612af8565b80601f0160208091040260200160405190810160405280929190818152602001828054610dba90612af8565b8015610e055780601f10610ddc57610100808354040283529160200191610e05565b820191905f5260205f20905b815481529060010190602001808311610de857829003601f168201915b50505050509250818054610e1890612af8565b80601f0160208091040260200160405190810160405280929190818152602001828054610e4490612af8565b8015610e8f5780601f10610e6657610100808354040283529160200191610e8f565b820191905f5260205f20905b815481529060010190602001808311610e7257829003601f168201915b505050505091509450945094509450509193509193565b6060805f60058054905067ffffffffffffffff811115610ec957610ec8612a9e565b5b604051908082528060200260200182016040528015610f0257816020015b610eef611f64565b815260200190600190039081610ee75790505b5090505f5f90505b6005805490508110156111235760045f60058381548110610f2e57610f2d612edb565b5b905f5260205f20015f9054906101000a900473ffffffffffffffffffffffffffffffffffffffff1673ffffffffffffffffffffffffffffffffffffffff1673ffffffffffffffffffffffffffffffffffffffff1681526020019081526020015f206040518060a00160405290815f82018054610fa990612af8565b80601f0160208091040260200160405190810160405280929190818152602001828054610fd590612af8565b80156110205780601f10610ff757610100808354040283529160200191611020565b820191905f5260205f20905b81548152906001019060200180831161100357829003601f168201915b5050505050815260200160018201805461103990612af8565b80601f016020809104026020016040519081016040528092919081815260200182805461106590612af8565b80156110b05780601f10611087576101008083540402835291602001916110b0565b820191905f5260205f20905b81548152906001019060200180831161109357829003601f168201915b50505050508152602001600282015f9054906101000a900460ff161515151581526020016002820160019054906101000a900460ff1615151515815260200160038201548152505082828151811061110b5761110a612edb565b5b60200260200101819052508080600101915050610f0a565b50806005808054806020026020016040519081016040528092919081815260200182805480156111a557602002820191905f5260205f20905b815f9054906101000a900473ffffffffffffffffffffffffffffffffffffffff1673ffffffffffffffffffffffffffffffffffffffff168152602001906001019080831161115c575b5050505050905092509250509091565b5f5f9054906101000a900473ffffffffffffffffffffffffffffffffffffffff1673ffffffffffffffffffffffffffffffffffffffff163373ffffffffffffffffffffffffffffffffffffffff1614611243576040517f08c379a000000000000000000000000000000000000000000000000000000000815260040161123a90612e54565b60405180910390fd5b60016002811115611257576112566127aa565b5b5f60149054906101000a900460ff166002811115611278576112776127aa565b5b146112b8576040517f08c379a00000000000000000000000000000000000000000000000000000000081526004016112af90612f52565b60405180910390fd5b60025f60146101000a81548160ff021916908360028111156112dd576112dc6127aa565b5b02179055507f66ec723071e4bb646f7b35d31bc2dee8510979bd8c180edd0690d4f5e802f1e460405160405180910390a1565b5f5f9054906101000a900473ffffffffffffffffffffffffffffffffffffffff1673ffffffffffffffffffffffffffffffffffffffff163373ffffffffffffffffffffffffffffffffffffffff161461139e576040517f08c379a000000000000000000000000000000000000000000000000000000000815260040161139590612e54565b60405180910390fd5b5f60028111156113b1576113b06127aa565b5b5f60149054906101000a900460ff1660028111156113d2576113d16127aa565b5b14611412576040517f08c379a000000000000000000000000000000000000000000000000000000000815260040161140990612fba565b60405180910390fd5b6001600280549050101561145b576040517f08c379a000000000000000000000000000000000000000000000000000000000815260040161145290613022565b60405180910390fd5b60015f60146101000a81548160ff021916908360028111156114805761147f6127aa565b5b02179055507fc475c26aa25ed8e85a7faa790e5f63b5d7ee1025f12821f4c9bfddd36ab4d11260405160405180910390a1565b5f5f9054906101000a900473ffffffffffffffffffffffffffffffffffffffff1681565b5f60605f6002808111156114ee576114ed6127aa565b5b5f60149054906101000a900460ff16600281111561150f5761150e6127aa565b5b1461154f576040517f08c379a00000000000000000000000000000000000000000000000000000000081526004016115469061308a565b60405180910390fd5b5f5f90505f5f90505f5f90505b6002805490508110156115c1575f60015f6002848154811061158157611580612edb565b5b905f5260205f20015481526020019081526020015f20905082816003015411156115b35780600301549250805f015493505b50808060010191505061155c565b505f82036115e8575f5f60405180602001604052805f8152509094509450945050506116a5565b8160015f8481526020019081526020015f2060010160015f8581526020019081526020015f206003015481805461161e90612af8565b80601f016020809104026020016040519081016040528092919081815260200182805461164a90612af8565b80156116955780601f1061166c57610100808354040283529160200191611695565b820191905f5260205f20905b81548152906001019060200180831161167857829003601f168201915b5050505050915094509450945050505b909192565b6004602052805f5260405f205f91509050805f0180546116c990612af8565b80601f01602080910402602001604051908101604052809291908181526020018280546116f590612af8565b80156117405780601f1061171757610100808354040283529160200191611740565b820191905f5260205f20905b81548152906001019060200180831161172357829003601f168201915b50505050509080600101805461175590612af8565b80601f016020809104026020016040519081016040528092919081815260200182805461178190612af8565b80156117cc5780601f106117a3576101008083540402835291602001916117cc565b820191905f5260205f20905b8154815290600101906020018083116117af57829003601f168201915b505050505090806002015f9054906101000a900460ff16908060020160019054906101000a900460ff16908060030154905085565b5f5f9054906101000a900473ffffffffffffffffffffffffffffffffffffffff1673ffffffffffffffffffffffffffffffffffffffff163373ffffffffffffffffffffffffffffffffffffffff161461188f576040517f08c379a000000000000000000000000000000000000000000000000000000000815260040161188690612e54565b60405180910390fd5b5f73ffffffffffffffffffffffffffffffffffffffff168573ffffffffffffffffffffffffffffffffffffffff16036118fd576040517f08c379a00000000000000000000000000000000000000000000000000000000081526004016118f4906130f2565b60405180910390fd5b60045f8673ffffffffffffffffffffffffffffffffffffffff1673ffffffffffffffffffffffffffffffffffffffff1681526020019081526020015f206002015f9054906101000a900460ff161561198a576040517f08c379a000000000000000000000000000000000000000000000000000000000815260040161198190612a80565b60405180910390fd5b6040518060a0016040528085858080601f0160208091040260200160405190810160405280939291908181526020018383808284375f81840152601f19601f82011690508083019250505050505050815260200183838080601f0160208091040260200160405190810160405280939291908181526020018383808284375f81840152601f19601f8201169050808301925050505050505081526020016001151581526020015f151581526020015f81525060045f8773ffffffffffffffffffffffffffffffffffffffff1673ffffffffffffffffffffffffffffffffffffffff1681526020019081526020015f205f820151815f019081611a8c9190612cc8565b506020820151816001019081611aa29190612cc8565b506040820151816002015f6101000a81548160ff02191690831515021790555060608201518160020160016101000a81548160ff02191690831515021790555060808201518160030155905050600585908060018154018082558091505060019003905f5260205f20015f9091909190916101000a81548173ffffffffffffffffffffffffffffffffffffffff021916908373ffffffffffffffffffffffffffffffffffffffff1602179055508473ffffffffffffffffffffffffffffffffffffffff167f96ac7a421360a2bd773d747b2f64b40a916821c4906dbfdebf787c292e741f7d85858585604051611b9b9493929190612dd1565b60405180910390a25050505050565b5f600280549050905090565b5f60149054906101000a900460ff1681565b6060805f5f5f5f60045f8873ffffffffffffffffffffffffffffffffffffffff1673ffffffffffffffffffffffffffffffffffffffff1681526020019081526020015f206040518060a00160405290815f82018054611c2690612af8565b80601f0160208091040260200160405190810160405280929190818152602001828054611c5290612af8565b8015611c9d5780601f10611c7457610100808354040283529160200191611c9d565b820191905f5260205f20905b815481529060010190602001808311611c8057829003601f168201915b50505050508152602001600182018054611cb690612af8565b80601f0160208091040260200160405190810160405280929190818152602001828054611ce290612af8565b8015611d2d5780601f10611d0457610100808354040283529160200191611d2d565b820191905f5260205f20905b815481529060010190602001808311611d1057829003601f168201915b50505050508152602001600282015f9054906101000a900460ff161515151581526020016002820160019054906101000a900460ff161515151581526020016003820154815250509050805f01518160200151826040015183606001518460800151955095509550955095505091939590929450565b5f60045f8373ffffffffffffffffffffffffffffffffffffffff1673ffffffffffffffffffffffffffffffffffffffff1681526020019081526020015f206002015f9054906101000a900460ff169050919050565b5f5f9054906101000a900473ffffffffffffffffffffffffffffffffffffffff1673ffffffffffffffffffffffffffffffffffffffff163373ffffffffffffffffffffffffffffffffffffffff1614611e86576040517f08c379a0000000000000000000000000000000000000000000000000000000008152600401611e7d90612e54565b60405180910390fd5b5f73ffffffffffffffffffffffffffffffffffffffff168173ffffffffffffffffffffffffffffffffffffffff1603611ef4576040517f08c379a0000000000000000000000000000000000000000000000000000000008152600401611eeb9061315a565b60405180910390fd5b805f5f6101000a81548173ffffffffffffffffffffffffffffffffffffffff021916908373ffffffffffffffffffffffffffffffffffffffff16021790555050565b6040518060a001604052805f815260200160608152602001606081526020015f81526020015f151581525090565b6040518060a0016040528060608152602001606081526020015f151581526020015f151581526020015f81525090565b5f5ffd5b5f5ffd5b5f819050919050565b611fae81611f9c565b8114611fb8575f5ffd5b50565b5f81359050611fc981611fa5565b92915050565b5f60208284031215611fe457611fe3611f94565b5b5f611ff184828501611fbb565b91505092915050565b5f73ffffffffffffffffffffffffffffffffffffffff82169050919050565b5f61202382611ffa565b9050919050565b61203381612019565b811461203d575f5ffd5b50565b5f8135905061204e8161202a565b92915050565b5f6020828403121561206957612068611f94565b5b5f61207684828501612040565b91505092915050565b5f8115159050919050565b6120938161207f565b82525050565b5f6020820190506120ac5f83018461208a565b92915050565b5f5ffd5b5f5ffd5b5f5ffd5b5f5f83601f8401126120d3576120d26120b2565b5b8235905067ffffffffffffffff8111156120f0576120ef6120b6565b5b60208301915083600182028301111561210c5761210b6120ba565b5b9250929050565b5f5f5f5f6040858703121561212b5761212a611f94565b5b5f85013567ffffffffffffffff81111561214857612147611f98565b5b612154878288016120be565b9450945050602085013567ffffffffffffffff81111561217757612176611f98565b5b612183878288016120be565b925092505092959194509250565b5f81519050919050565b5f82825260208201905092915050565b5f819050602082019050919050565b6121c381611f9c565b82525050565b5f81519050919050565b5f82825260208201905092915050565b8281835e5f83830152505050565b5f601f19601f8301169050919050565b5f61220b826121c9565b61221581856121d3565b93506122258185602086016121e3565b61222e816121f1565b840191505092915050565b6122428161207f565b82525050565b5f60a083015f83015161225d5f8601826121ba565b50602083015184820360208601526122758282612201565b9150506040830151848203604086015261228f8282612201565b91505060608301516122a460608601826121ba565b5060808301516122b76080860182612239565b508091505092915050565b5f6122cd8383612248565b905092915050565b5f602082019050919050565b5f6122eb82612191565b6122f5818561219b565b935083602082028501612307856121ab565b805f5b85811015612342578484038952815161232385826122c2565b945061232e836122d5565b925060208a0199505060018101905061230a565b50829750879550505050505092915050565b5f6020820190508181035f83015261236c81846122e1565b905092915050565b61237d81611f9c565b82525050565b5f82825260208201905092915050565b5f61239d826121c9565b6123a78185612383565b93506123b78185602086016121e3565b6123c0816121f1565b840191505092915050565b5f6080820190506123de5f830187612374565b81810360208301526123f08186612393565b905081810360408301526124048185612393565b90506124136060830184612374565b95945050505050565b5f81519050919050565b5f82825260208201905092915050565b5f819050602082019050919050565b5f60a083015f8301518482035f86015261245f8282612201565b915050602083015184820360208601526124798282612201565b915050604083015161248e6040860182612239565b5060608301516124a16060860182612239565b5060808301516124b460808601826121ba565b508091505092915050565b5f6124ca8383612445565b905092915050565b5f602082019050919050565b5f6124e88261241c565b6124f28185612426565b93508360208202850161250485612436565b805f5b8581101561253f578484038952815161252085826124bf565b945061252b836124d2565b925060208a01995050600181019050612507565b50829750879550505050505092915050565b5f81519050919050565b5f82825260208201905092915050565b5f819050602082019050919050565b61258381612019565b82525050565b5f612594838361257a565b60208301905092915050565b5f602082019050919050565b5f6125b682612551565b6125c0818561255b565b93506125cb8361256b565b805f5b838110156125fb5781516125e28882612589565b97506125ed836125a0565b9250506001810190506125ce565b5085935050505092915050565b5f6040820190508181035f83015261262081856124de565b9050818103602083015261263481846125ac565b90509392505050565b61264681612019565b82525050565b5f60208201905061265f5f83018461263d565b92915050565b5f6060820190506126785f830186612374565b818103602083015261268a8185612393565b90506126996040830184612374565b949350505050565b5f60a0820190508181035f8301526126b98188612393565b905081810360208301526126cd8187612393565b90506126dc604083018661208a565b6126e9606083018561208a565b6126f66080830184612374565b9695505050505050565b5f5f5f5f5f6060868803121561271957612718611f94565b5b5f61272688828901612040565b955050602086013567ffffffffffffffff81111561274757612746611f98565b5b612753888289016120be565b9450945050604086013567ffffffffffffffff81111561277657612775611f98565b5b612782888289016120be565b92509250509295509295909350565b5f6020820190506127a45f830184612374565b92915050565b7f4e487b71000000000000000000000000000000000000000000000000000000005f52602160045260245ffd5b600381106127e8576127e76127aa565b5b50565b5f8190506127f8826127d7565b919050565b5f612807826127eb565b9050919050565b612817816127fd565b82525050565b5f6020820190506128305f83018461280e565b92915050565b7f566f74696e67206e6f7420616c6c6f77656400000000000000000000000000005f82015250565b5f61286a601283612383565b915061287582612836565b602082019050919050565b5f6020820190508181035f8301526128978161285e565b9050919050565b7f4e6f742061207265676973746572656420766f746572000000000000000000005f82015250565b5f6128d2601683612383565b91506128dd8261289e565b602082019050919050565b5f6020820190508181035f8301526128ff816128c6565b9050919050565b7f416c726561647920766f746564000000000000000000000000000000000000005f82015250565b5f61293a600d83612383565b915061294582612906565b602082019050919050565b5f6020820190508181035f8301526129678161292e565b9050919050565b7f43616e646964617465206e6f74206578697374730000000000000000000000005f82015250565b5f6129a2601483612383565b91506129ad8261296e565b602082019050919050565b5f6020820190508181035f8301526129cf81612996565b9050919050565b7f4e487b71000000000000000000000000000000000000000000000000000000005f52601160045260245ffd5b5f612a0d82611f9c565b9150612a1883611f9c565b9250828201905080821115612a3057612a2f6129d6565b5b92915050565b7f416c7265616479207265676973746572656400000000000000000000000000005f82015250565b5f612a6a601283612383565b9150612a7582612a36565b602082019050919050565b5f6020820190508181035f830152612a9781612a5e565b9050919050565b7f4e487b71000000000000000000000000000000000000000000000000000000005f52604160045260245ffd5b7f4e487b71000000000000000000000000000000000000000000000000000000005f52602260045260245ffd5b5f6002820490506001821680612b0f57607f821691505b602082108103612b2257612b21612acb565b5b50919050565b5f819050815f5260205f209050919050565b5f6020601f8301049050919050565b5f82821b905092915050565b5f60088302612b847fffffffffffffffffffffffffffffffffffffffffffffffffffffffffffffffff82612b49565b612b8e8683612b49565b95508019841693508086168417925050509392505050565b5f819050919050565b5f612bc9612bc4612bbf84611f9c565b612ba6565b611f9c565b9050919050565b5f819050919050565b612be283612baf565b612bf6612bee82612bd0565b848454612b55565b825550505050565b5f5f905090565b612c0d612bfe565b612c18818484612bd9565b505050565b5b81811015612c3b57612c305f82612c05565b600181019050612c1e565b5050565b601f821115612c8057612c5181612b28565b612c5a84612b3a565b81016020851015612c69578190505b612c7d612c7585612b3a565b830182612c1d565b50505b505050565b5f82821c905092915050565b5f612ca05f1984600802612c85565b1980831691505092915050565b5f612cb88383612c91565b9150826002028217905092915050565b612cd1826121c9565b67ffffffffffffffff811115612cea57612ce9612a9e565b5b612cf48254612af8565b612cff828285612c3f565b5f60209050601f831160018114612d30575f8415612d1e578287015190505b612d288582612cad565b865550612d8f565b601f198416612d3e86612b28565b5f5b82811015612d6557848901518255600182019150602085019450602081019050612d40565b86831015612d825784890151612d7e601f891682612c91565b8355505b6001600288020188555050505b505050505050565b828183375f83830152505050565b5f612db08385612383565b9350612dbd838584612d97565b612dc6836121f1565b840190509392505050565b5f6040820190508181035f830152612dea818688612da5565b90508181036020830152612dff818486612da5565b905095945050505050565b7f4f6e6c79206f776e6572000000000000000000000000000000000000000000005f82015250565b5f612e3e600a83612383565b9150612e4982612e0a565b602082019050919050565b5f6020820190508181035f830152612e6b81612e32565b9050919050565b5f612e7c82611f9c565b91507fffffffffffffffffffffffffffffffffffffffffffffffffffffffffffffffff8203612eae57612ead6129d6565b5b600182019050919050565b5f6020820190508181035f830152612ed2818486612da5565b90509392505050565b7f4e487b71000000000000000000000000000000000000000000000000000000005f52603260045260245ffd5b7f456c656374696f6e206e6f74206f6e676f696e670000000000000000000000005f82015250565b5f612f3c601483612383565b9150612f4782612f08565b602082019050919050565b5f6020820190508181035f830152612f6981612f30565b9050919050565b7f416c72656164792073746172746564206f7220656e64656400000000000000005f82015250565b5f612fa4601883612383565b9150612faf82612f70565b602082019050919050565b5f6020820190508181035f830152612fd181612f98565b9050919050565b7f4e6f2063616e64696461746573000000000000000000000000000000000000005f82015250565b5f61300c600d83612383565b915061301782612fd8565b602082019050919050565b5f6020820190508181035f83015261303981613000565b9050919050565b7f456c656374696f6e206e6f7420656e64656400000000000000000000000000005f82015250565b5f613074601283612383565b915061307f82613040565b602082019050919050565b5f6020820190508181035f8301526130a181613068565b9050919050565b7f496e76616c6964206164647265737300000000000000000000000000000000005f82015250565b5f6130dc600f83612383565b91506130e7826130a8565b602082019050919050565b5f6020820190508181035f830152613109816130d0565b9050919050565b7f7a65726f206164647265737300000000000000000000000000000000000000005f82015250565b5f613144600c83612383565b915061314f82613110565b602082019050919050565b5f6020820190508181035f83015261317181613138565b905091905056fea26469706673582212206261da97929c6a8652e888a7f153e8af4161365e2838b89a0432428232cadbb964736f6c634300081c0033",
  "linkReferences": {},
  "deployedLinkReferences": {},
  "immutableReferences": {},
  "inputSourceName": "project/contracts/TrustBallot.sol",
  "buildInfoId": "solc-0_8_28-1e7b3a9bf6a343bd2ed08db75c8f08073cef0411"
}